:100000000C9400010C9428010C9428010C947607A0
:100010000C9476070C9476070C9428010C94280114
:100020000C9428010C9428010C9428010C942801AC
:100030000C9428010C9428010C9428010C9428019C
:100040000C942C070C9428010C9411060C94EB05CD
:100050000C9428010C9428010C9428010C9428017C
:100060000C9428010C9428010000000024002700B3
:100070002A0000000008000201000003040700003D
:10008000000000000000000000006410B71DC82040
:100090006E3BAC30D9269041DC76F4516B6B5861E5
:1000A000B24D3C7105502083B8ED44930FF0E8A3A6
:1000B000D6D68CB361CBB0C2649BD4D2D38678E25F
:1000C0000AA01CF2BDBD00000000250028002B0086
:1000D0000000000023002600290004040404040496
:1000E00004040202020202020303030303030102E7
:1000F00004081020408001020408102001020408B6
:10010000102000407A10F35A00A0724E1809001017
:10011000A5D4E80000E87648170000E40B5402007C
:1001200000CA9A3B000000E1F505000080969800A7
:10013000000040420F000000A086010000001027D0
:1001400000000000E8030000000064000000000060
:100150000A00000000000100000000002C76D88892
:10016000DC674F0823DFC1DFAE59E1B1B796E5E3A5
:10017000E453C63AE651997696E8E6C28426EB89BE
:100180008C9B62ED407C6FFCEFBC9C9F40F2BAA55B
:100190006FA5F490055A2AF75C936B6CF9676DC1F3
:1001A0001BFCE0E40D47FEF520E6B500D0ED902EF7
:1001B0000300943577050080841E080000204E0A55
:1001C000000000C80C333333330F986E1283114193
:1001D000EF8D2114893BE65516CFFEE6DB18D1845E
:1001E0004B381BF77C1D901DA4BBE4242032847285
:1001F0005E228100C9F124ECA1E53D279C0D920D02
:1002000011241FBECFEFD8E0DEBFCDBF11E0A0E0CC
:10021000B1E0E0E0FDE202C005900D92A038B10728
:10022000D9F722E0A0E8B1E001C01D92AF3CB207CF
:10023000E1F710E0CFEFD0E004C02197FE010E946B
:100240003B0FCE3FD107C9F70E94830A0C94731667
:100250000C9400000895CF92DF92EF92FF920F93DB
:100260001F93CF93DF936C017A018B01C0E0D0E044
:10027000CE15DF0589F0D8016D918D01D601ED9184
:10028000FC910190F081E02DC6010995892B11F4B4
:100290007E0102C02196ECCFC701DF91CF911F9163
:1002A0000F91FF90EF90DF90CF900895FC01918D1A
:1002B000828D981761F0828DDF01A80FB11D5D96C8
:1002C0008C91928D9F5F9F73928F90E008958FEF36
:1002D0009FEF0895FC01918D828D981731F0828DEA
:1002E000E80FF11D858D90E008958FEF9FEF089541
:1002F000FC01918D228D892F90E0805C9F4F821BA5
:1003000091098F739927089588EF91E00E947801F1
:1003100021E0892B09F420E0822F0895FC01848DCF
:10032000DF01A80FB11DA35ABF4F2C91848D90E01F
:1003300001968F739927848FA689B7892C93A089FA
:10034000B1898C9180648C93938D848D981306C0B1
:100350000288F389E02D80818F7D80830895EF925C
:10036000FF920F931F93CF93DF93EC0181E0888F6F
:100370009B8D8C8D981305C0E889F989808185FD56
:1003800024C0F62E0B8D10E00F5F1F4F0F73112747
:10039000E02E8C8DE8120CC00FB607FCFACFE8896E
:1003A000F989808185FFF5CFCE010E948E01F1CFC2
:1003B0008B8DFE01E80FF11DE35AFF4FF0820B8F8A
:1003C000EA89FB898081806207C0EE89FF896083AA
:1003D000E889F98980818064808381E090E0DF9101
:1003E000CF911F910F91FF90EF900895CF93DF93DE
:1003F000EC01888D8823C9F0EA89FB89808185FD1D
:1004000005C0A889B9898C9186FD0FC00FB607FC7D
:10041000F5CF808185FFF2CFA889B9898C9185FFBE
:10042000EDCFCE010E948E01E7CFDF91CF910895ED
:1004300080E090E0892B29F00E94840181110C94C6
:10044000000008953FB7F8948091D1019091D201B6
:10045000A091D301B091D40126B5A89B05C02F3F30
:1004600019F00196A11DB11D3FBFBA2FA92F982FDA
:100470008827820F911DA11DB11DBC01CD0142E055
:10048000660F771F881F991F4A95D1F708958F929D
:100490009F92AF92BF92CF92DF92EF92FF926B0149
:1004A0007C010E9422024B015C01C114D104E104D1
:1004B000F104F1F00E942202DC01CB0188199909B4
:1004C000AA09BB09883E9340A105B10570F321E05C
:1004D000C21AD108E108F10888EE880E83E0981E60
:1004E000A11CB11CC114D104E104F10419F7DDCF42
:1004F000FF90EF90DF90CF90BF90AF909F908F9044
:1005000008952091D7013091D8012817390771F447
:100510009091D5018091D601981741F0E091D501D5
:10052000F0E0E457FE4F808190E008958FEF9FEF59
:10053000089508951F93CF93DF93DC015C962D916E
:100540003C915D972115310539F481E090E01396D7
:100550009C938E9312973DC05196ED91FC915297CA
:1005600050969C915097892F80951FB75E964C911D
:100570005E9741FB772770F941FD6095F8944081C3
:10058000772311F0492B01C048234083E9012197CB
:10059000F1F748E0508160FF02C0592B01C0582399
:1005A0005083E9012197F1F76695415099F7772338
:1005B00021F090818923808303C08081982B9083D0
:1005C0001FBF5C968D919C915D970197F1F721E09B
:1005D00030E0C901DF91CF911F9108952091D7019B
:1005E0003091D8012817390771F48091D6012091F4
:1005F000D50190E0805C9F4F821B910960E470E020
:100600000E94D20E089580E090E008952091D701D5
:100610003091D80128173907B9F49091D50180910C
:10062000D601981789F0E091D501F0E0E457FE4F2C
:1006300080812091D50130E02F5F3F4F2F7333270A
:100640002093D50190E008958FEF9FEF0895E091FA
:10065000D701F091D801E817F90769F4A389B489A3
:100660009C918589809589238C931092D801109252
:10067000D70181E0089580E00895EF92FF920F93F3
:100680001F93CF93DF93FC01C081D181FB010081D7
:1006900011818991882399F0082E000C990B0E94F2
:1006A00055127C01F80181918F01082E000C990BE5
:1006B0000E945512E816F90661F380E001C081E05E
:1006C000DF91CF911F910F91FF90EF9008958EE0F1
:1006D00091E00E942F096091E5017091E6018091FF
:1006E000E7019091E80141E050E00E948F0986E027
:1006F00091E00E942F096091EE017091EF018091CD
:10070000F0019091F10142E050E00C948F0982E1F8
:1007100091E00E942F096091880170918901809178
:100720008A0190918B0142E050E00C948F090E9465
:1007300050120F931F93CF93DF93EC01888199811F
:10074000009729F02A813B812617370788F48B010F
:100750006F5F7F4F0E948611009761F099838883B5
:100760001B830A832C813D81232B11F4FC01108211
:1007700081E001C080E0DF91CF911F910F9108953A
:10078000EF92FF920F931F93CF93DF931F92CDB7FA
:10079000DEB78091F2019091F30101969093F301FD
:1007A0008093F2010AEE11E0E12CF12CF801619145
:1007B0008F01C70169830E9426166981681719F0A5
:1007C000C7010E942E16FFEFEF1AFF0A8EE0E8160F
:1007D000F10461F70F90DF91CF911F910F91FF907E
:1007E000EF9008950F931F93CF93DF930AEE11E0DC
:1007F000C0E0D0E0CE010E942616F80181938F015F
:100800002196CE30D105B1F7DF91CF911F910F9195
:100810000895EF92FF920F931F93CF93DF93EC0114
:100820007B018A01BA010E949903288139818111D3
:100830000DC02115310519F0C9010E94EE10198271
:1008400018821D821C821B821A8206C01D830C83A3
:10085000B701C9010E946612CE01DF91CF911F91AD
:100860000F91FF90EF900895FC0111821082138286
:100870001282158214826115710551F0FB010190FD
:100880000020E9F73197AF01461B570B0C94090480
:1008900008956115710579F0FB0101900020E9F7D9
:1008A0003197AF01461B570BDC01ED91FC910280A3
:1008B000F381E02D099480E090E008954F925F92DB
:1008C0006F927F92EF92FF920F931F93CF93DF93DC
:1008D000CDB7DEB7A1970FB6F894DEBF0FBECDBF80
:1008E0007C01FA01CB0119A2223008F42AE08E0122
:1008F0000F5D1F4F422E512C612C712CBF01A301A3
:1009000092010E94E60EF901CA01015011096A30F4
:1009100014F4605D01C0695CD8016C93232B242B17
:10092000252B61F7B801C7010E944904A1960FB6B3
:10093000F894DEBF0FBECDBFDF91CF911F910F9115
:10094000FF90EF907F906F905F904F9008958F92FF
:100950009F92AF92BF92CF92DF92EF92FF928EE47E
:1009600080937C0065E070E080E090E00E944702A8
:1009700080917A00806480937A0080917A0086FD6D
:10098000FCCF209178008091790030E0382B40E056
:1009900050E060E070E381E190E00E94080FCA013E
:1009A000B9010E94091520E030E04AE754E40E94B2
:1009B000AE0F6093840170938501809386019093BC
:1009C00087018EE480937C0062E070E080E090E03C
:1009D0000E94470280917A00806480937A0080911F
:1009E0007A0086FDFCCF209178008091790030E07C
:1009F000382B032E000C440B550B64EB7BE281E19A
:100A000090E00E94080FCA01B9010E94091520E078
:100A100030E04AE754E40E94AE0F60938001709387
:100A20008101809382019093830125E33FEE48E7A3
:100A30005FE30E9468156B017C016093DD01709398
:100A4000DE018093DF019093E00181E10E94D508EF
:100A50006093E1017093E2018093E3019093E401DC
:100A600020E030EF4FE755E40E94AE0FA70196015A
:100A70000E9468154B015C016093D9017093DA0103
:100A80008093DB019093DC0120E030E040E05FE305
:100A9000C701B6010E9468159B01AC01C501B401F4
:100AA0000E94410F20E030E040E251E40E946815CE
:100AB000609388017093890180938A0190938B01E0
:100AC00068E471E088EF91E00E9449046091DD01E3
:100AD0007091DE018091DF019091E00144E00E947D
:100AE000F0076FE471E088EF91E00E9449046091A3
:100AF00088017091890180918A0190918B0144E075
:100B00000E94F0076DE571E088EF91E00E944904D2
:100B10006BE571E088EF91E00E9449042091C502E5
:100B20003091C6024091C7025091C802609188017D
:100B30007091890180918A0190918B010E946815C2
:100B40002091EA013091EB014091EC015091ED01CF
:100B50000E94420F6B017C016093EA017093EB01EC
:100B60008093EC019093ED0120E030E040E152E40D
:100B70000E944F1087FD26C02AE037ED43E25CE378
:100B80006091EE017091EF018091F0019091F1017F
:100B90000E94420F6093EE017093EF018093F00189
:100BA0009093F10120E030E040E152E4C701B6014A
:100BB0000E94410F6093EA017093EB018093EC0176
:100BC0009093ED01FF90EF90DF90CF90BF90AF90AA
:100BD0009F908F9008951F920F920FB60F9211243D
:100BE0002F933F934F935F936F937F938F939F9335
:100BF000AF93BF93EF93FF9388EF91E00E948E0134
:100C0000FF91EF91BF91AF919F918F917F916F91E4
:100C10005F914F913F912F910F900FBE0F901F90BA
:100C200018951F920F920FB60F9211242F938F9346
:100C30009F93EF93FF93E0910802F0910902808166
:100C4000E0910E02F0910F0282FD12C0908180911E
:100C500011028F5F8F7320911202821751F0E09181
:100C60001102F0E0E850FE4F958F8093110201C011
:100C70008081FF91EF919F918F912F910F900FBEE7
:100C80000F901F90189590E0FC01EE58FF4F3491A3
:100C9000FC01E251FF4F2491FC01E652FF4FE49129
:100CA000EE2309F43BC0332339F1333091F038F4AB
:100CB0003130A9F0323001F584B58F7D12C0373064
:100CC00091F03830A1F03430B9F4809180008F7DFC
:100CD00003C0809180008F77809380000DC084B521
:100CE0008F7784BD09C08091B0008F7703C0809159
:100CF000B0008F7D8093B000F0E0EE0FFF1FEA534D
:100D0000FF4FA591B4918FB7F894EC91611103C096
:100D100020952E2301C02E2B2C938FBF0895CF93A7
:100D2000DF9390E0FC01E251FF4F2491FC01E65279
:100D3000FF4F8491882361F190E0880F991FFC0197
:100D4000E859FF4FC591D491FC01EA53FF4FA5919B
:100D5000B491611109C09FB7F894888120958223CE
:100D60008883EC912E230BC0623061F49FB7F89416
:100D70003881822F809583238883EC912E2B2C93AE
:100D80009FBF06C08FB7F894E8812E2B28838FBFB2
:100D9000DF91CF9108952FB7F8946091CD017091B4
:100DA000CE018091CF019091D0012FBF0895CF92B5
:100DB000DF92EF92FF920F931F93CF93DF93FC018B
:100DC0002481222309F43FC0EC01C084D184E28451
:100DD000F3840E94CB06DC01CB01880F991FAA1F68
:100DE000BB1F8C159D05AE05BF0520F4188619861E
:100DF0001A861B860E94CB06088519852A853B85A5
:100E0000DC01CB01801B910BA20BB30B0881198174
:100E10002A813B8180179107A207B307A0F00E94A7
:100E2000CB06688779878A879B878D8181111C8291
:100E3000EE81FF81DF91CF911F910F91FF90EF9095
:100E4000DF90CF900994DF91CF911F910F91FF9088
:100E5000EF90DF90CF9008951F920F920FB60F92F0
:100E600011242F933F938F939F93AF93BF938091C0
:100E7000CD019091CE01A091CF01B091D0013091E0
:100E8000CC0123E0230F2D3720F40196A11DB11DC5
:100E900005C026E8230F0296A11DB11D2093CC01A9
:100EA0008093CD019093CE01A093CF01B093D00158
:100EB0008091D1019091D201A091D301B091D40140
:100EC0000196A11DB11D8093D1019093D201A093F1
:100ED000D301B093D401BF91AF919F918F913F9176
:100EE0002F910F900FBE0F901F9018951F920F9289
:100EF0000FB60F9211242F933F934F935F936F93ED
:100F00007F938F939F93AF93BF93EF93FF93E09162
:100F1000D701F091D801309709F451C0968DA6857C
:100F2000B785858591FF04C09C91892329F447C02A
:100F30009C91892309F043C0A389B4899C91858938
:100F4000809589238C93868997890197F1F7608D25
:100F5000718DA685B785558538E020E0CB010197D6
:100F6000F1F7822F90E095958795282F4C91452396
:100F700009F02068315091F7868D81FD2095809190
:100F8000D60190E001968F7399273091D5013817DB
:100F900049F0A091D601B0E0A457BE4F2C938093A6
:100FA000D60103C0868D8160868F828D938D0197D7
:100FB000F1F7A389B4899C918589892B8C93FF9142
:100FC000EF91BF91AF919F918F917F916F915F91C1
:100FD0004F913F912F910F900FBE0F901F9018953A
:100FE0004F925F926F927F928F929F92AF92BF9239
:100FF000CF92DF92EF92FF926B017C01B42E9B01A6
:10100000AC010E945410882319F060E771E027C0FA
:1010100026013701E89477F82FEF3FEF4FE75FE7BE
:10102000C301B2010E94541081110DC02FEF3FEF98
:101030004FE75FE7C301B2010E94021518161CF4C6
:1010400064E771E00CC02FEF3FEF4FE75FE4C701AB
:10105000B6010E944F10181694F468E771E088EF0B
:1010600091E0FF90EF90DF90CF90BF90AF909F9076
:101070008F907F906F905F904F900C9449042FEF6A
:101080003FEF4FE75FECC701B6010E94021587FDF5
:10109000E4CF20E030E0A901C701B6010E940215AB
:1010A00087FF11C0E091F801F091F9010190F08102
:1010B000E02D6DE288EF91E009954C01F7FAF0948C
:1010C000F7F8F09402C0812C912CA12C60E070E024
:1010D00080E09FE3AB1441F020E030E040E251E4D7
:1010E0000E94AE0FA394F6CF9B01AC01C701B601DD
:1010F0000E94420F2B013C010E9420106B017C01D9
:101100000E9407159B01AC01C301B2010E94410F6F
:101110002B013C012AE0B701A60188EF91E00E9473
:101120005E047C01E80CF91CBB2041F06CE771E027
:1011300088EF91E00E944904E80EF91EDB2CDD20C7
:1011400031F120E030E040E251E4C301B2010E94FD
:1011500068152B013C010E9420104B01A12CB12CE1
:101160002AE0B501A40188EF91E00E945E04E80E38
:10117000F91EC501B4010E9407159B01AC01C30112
:10118000B2010E94410F2B013C01DA94D8CFC70174
:10119000FF90EF90DF90CF90BF90AF909F908F9097
:1011A0007F906F905F904F900895CF92DF92EF9273
:1011B000FF920F931F9392EF980F8E3008F0892FB4
:1011C00087708064E0E0F0E000E010E09801A0E0CB
:1011D000B0E040E050E0BA0180937C0090917A004A
:1011E000906490937A0090917A0096FDFCCFC09025
:1011F000780090917900D12CD92A0D2C000CEE08A2
:10120000FF084C0D5D1D6E1D7F1D1196A031B105AF
:1012100019F74E5F5F4F6F4F7F4F92E0769567955E
:10122000579547959A95D1F766277727040F151F8D
:10123000261F371F3196EA30F10549F6C901B8017A
:101240000E94071520E030E040E251E40E94AE0F1A
:101250001F910F91FF90EF90DF90CF9008950F9323
:101260001F938C01BC0188EF91E00E944904B801F2
:1012700085E992E00E9449044091B8025091B90278
:101280006091BA027091BB0240955095609570953F
:10129000D8018D91882309F433C0E82FE427EF703B
:1012A00094E0E99FF0011124EA57FF4F0591159151
:1012B0002591349194E076956795579547959A9541
:1012C000D1F70427152726273727E82FE295EF7057
:1012D000E027EF7084E0E89FF0011124EA57FF4F08
:1012E0004591559165917491E4E036952795179550
:1012F0000795EA95D1F74027512762277327C9CF71
:1013000040955095609570954093B8025093B902FE
:101310006093BA027093BB021F910F9108950F93CF
:101320001F93CF93DF93CDB7DEB7A7970FB6F8948F
:10133000DEBF0FBECDBF242F1BA21AA21DA21CA26E
:101340001FA21EA242E0420F8E010F5F1F4F0E949C
:101350007C12009771F0FC0101900020E9F73197B1
:10136000AF01481B590BBC01CE0182960E940904B3
:101370000CC08AA19BA1009711F00E94EE101BA245
:101380001AA21FA21EA21DA21CA20EA11FA101151E
:10139000110511F4198213C00D30110510F00DE084
:1013A00010E06AA17BA1A801CE0101960E946D12F6
:1013B000E1E0F0E0EC0FFD1FE00FF11F10828AA1C9
:1013C0009BA10E94EE10CE0101960E942F096EE7AC
:1013D00071E088EF91E00E9449044091B802509179
:1013E000B9026091BA027091BB0220E188EF91E0EE
:1013F0000E945E046BE571E088EF91E00E94490471
:101400006EE771E085E992E00E9449044091B802DC
:101410005091B9026091BA027091BB0220E185E956
:1014200092E00E945E046BE571E085E992E00E9423
:1014300049048091B4029091B502A091B602B09196
:10144000B7028093B8029093B902A093BA02B09306
:10145000BB02A7960FB6F894DEBF0FBECDBFDF91DB
:10146000CF911F910F9108950F931F930E94CB0668
:1014700060939D0270939E0280939F029093A002BE
:10148000E0919502F09196020680F781E02D85E9C2
:1014900092E0099597FF1FC00E94CB0600919D0224
:1014A00010919E0220919F023091A002DC01CB019D
:1014B000801B910BA20BB30B0091990210919A0221
:1014C00020919B0230919C0280179107A207B307DD
:1014D000B8F28FEF9FEF1F910F9108958091BC029A
:1014E000882341F060E08091BD020E944306109283
:1014F000BC02089561E08091BD020E94430681E034
:101500008093BC020895CF93DF93CDB7DEB72E97BB
:101510000FB6F894DEBF0FBECDBF789484B582605D
:1015200084BD84B5816084BD85B5826085BD85B587
:10153000816085BD80916E00816080936E00109205
:101540008100809181008260809381008091810080
:101550008160809381008091800081608093800011
:101560008091B10084608093B1008091B00081606F
:101570008093B00080917A00846080937A0080919B
:101580007A00826080937A0080917A0081608093F3
:101590007A0080917A00806880937A001092C1006E
:1015A0001092B0021092AF021092AE021092AD02F1
:1015B0001092AC021092AB028EE393E09093B202D1
:1015C0008093B1029091A102963108F057C02DE8A6
:1015D00031E03093AC022093AB022CE333E0309344
:1015E000AE022093AD0224E632E03093B0022093A5
:1015F000AF0220916800983050F031E09E3008F43E
:1016000030E081E001C0880F3A95EAF701C084E03C
:10161000822B80936800983038F09E3040F09631ED
:1016200048F020E030E008C02DE630E005C02BE6B1
:1016300030E002C02CE630E03093A9022093A802EB
:10164000983030F481E001C0880F9A95EAF70EC017
:10165000292F30E09E3018F42850310902C02E5056
:10166000310981E001C0880F2A95EAF78093AA0228
:101670008091B1029091B2020197F1F78091AF028F
:101680009091B002892B21F18091D7019091D801DE
:1016900022E085399207E1F0009711F00E942703BC
:1016A0008091B3028E7F8093B3021092D601109284
:1016B000D50185E992E09093D8018093D701E0911C
:1016C000A802F091A90290818091AA02892B8083BF
:1016D000E0910802F091090282E08083E091040227
:1016E000F09105021082E0910602F09107028FEC62
:1016F000808310921002E0910C02F0910D0286E0BE
:101700008083E0910A02F0910B02808180618083E6
:10171000E0910A02F0910B02808188608083E09161
:101720000A02F0910B02808180688083E0910A02B6
:10173000F0910B0280818F7D808361E08DE00E94BB
:101740008F0660E08091BD020E9443061092BC02A9
:1017500064EF71E080E090E00E9447020E946E0A10
:1017600068EC70E080E090E00E9447020E946E0A00
:1017700068EC70E080E090E00E9447020E946E0AF0
:1017800068EC70E080E090E00E9447020E946E0AE0
:1017900068EC70E080E090E00E94470264EF71E046
:1017A00080E090E00E94470215E00E946E0A64EF1C
:1017B00071E080E090E00E9447020E946E0A64EFB0
:1017C00071E080E090E00E944702115071F70091B3
:1017D000C2021091C30287EA94E0F80197838683DE
:1017E0000E94CB06F8016087718782879387FF2468
:1017F000F394F4820091C0021091C10287E693E055
:10180000F801978386830E94CB06F8016087718771
:1018100082879387F4820091BE021091BF0287E80D
:1018200093E0F801978386830E94CB06F8016087D6
:10183000718782879387F48280E090E0A0EAB0E429
:101840008093DD019093DE01A093DF01B093E0016E
:101850000E94F2038FE00E94D5086093E10170932B
:10186000E2018093E3019093E40120E030EF4FE741
:1018700055E40E94AE0F2091DD013091DE014091D0
:10188000DF015091E0010E9468156093D9017093C7
:10189000DA018093DB019093DC0120E030E040E34B
:1018A00051E40E9468156093E5017093E60180930E
:1018B000E7019093E8012091E90121110DC020E09A
:1018C00030E040E251E40E94021587FF0FC00E9401
:1018D000C003F092E9010AC020E030E040E451E4A6
:1018E0000E944F10181614F41092E9016DE571E092
:1018F000CE0107960E94340485E992E00E94EE0230
:10190000181619060CF051C06DE571E0CE01019674
:101910000E9434040E94340A97FD1EC08A3091054B
:10192000D9F08D871E860D811E810F5F1F4FB80174
:10193000CE0101960E949903882361F329813A819F
:101940008D819E81BE01635F7F4F820F931F0E9436
:1019500066121E830D83DECF8F819885009779F004
:1019600069817A816115710541F049855A852D811A
:101970003E814217530708F0CEC00E94EE108981C5
:101980009A8198878F838B819C819A8789878D81A3
:101990009E819C878B871A8219821C821B821E82E1
:1019A0001D8289819A810E94EE100F811885011590
:1019B000110571F46EE571E0CE0101960E943404C8
:1019C0008B859C852D813E8182179307C9F40DC0BC
:1019D000F8018081882371F3082E000C990B0E9476
:1019E0005512F80181938F01F3CF892B59F0BE0175
:1019F0006F5F7F4FCE0107960E943D03182F03C0F3
:101A000010E001C011E089819A810E94EE1011233B
:101A100081F01092EE011092EF011092F0011092FD
:101A2000F1011092EA011092EB011092EC01109278
:101A3000ED016AE671E0CE0101960E9434048B85C7
:101A40009C852D813E818217930759F4892B59F08B
:101A5000BE016F5F7F4FCE0107960E943D03182F96
:101A600003C010E001C011E089819A810E94EE104C
:101A70001123C1F10E94C0030E94F2036091EA01A8
:101A80007091EB018091EC019091ED0142E050E00A
:101A90000E948F096091EE017091EF018091F00139
:101AA0009091F10142E050E00E948F096091F201B3
:101AB0007091F301072E000C880B990B0E940915F9
:101AC00042E050E00E948F096091F4017091F501AD
:101AD0008091F6019091F7010E94071542E050E0D5
:101AE0000E948F098F8198850E94EE108091C2021A
:101AF0009091C3020E94D7068091C0029091C102CA
:101B00000E94D7068091BE029091BF020E94D70624
:101B10000E9418029FCE0E9466128D819E819C8732
:101B20008B873DCF8AE291E0909396028093950255
:101B300085E992E00C9427038F929F92AF92BF9217
:101B4000CF92DF92EF92FF92CF931092FB0110920F
:101B5000FA0198EEC92E93E0D92EE12CF12CC09217
:101B6000FC01D092FD01E092FE01F092FF018AE1BA
:101B700091E09093F9018093F80185EC90E09093C7
:101B800005028093040284EC90E090930702809316
:101B9000060280EC90E0909309028093080281ECA9
:101BA00090E090930B0280930A0282EC90E0909375
:101BB0000D0280930C0286EC90E090930F028093CC
:101BC0000E02109211021092120210921302109241
:101BD0001402CDE0C093CA021092C90261E08DE008
:101BE0000E948F068DEC9CECACECBDE38093C502AB
:101BF0009093C602A093C702B093C80280E190E020
:101C00000E945910FC0124E6822E912CA12CB12CAB
:101C100080829182A282B3821482158217821682F8
:101C200010861186128613869093C3028093C20297
:101C300080E190E00E945910FC01C082D182E282D2
:101C4000F3821482158217821682108611861286FC
:101C500013869093C1028093C00280E190E00E94BD
:101C60005910FC0180829182A282B3821482158273
:101C70001782168210861186128613869093BF02F1
:101C80008093BE02C093BD021092BC0261E08DE061
:101C90000E948F061092980210929702C0929902A9
:101CA000D0929A02E0929B02F0929C028AE291E02A
:101CB00090939602809395021092AC021092AB0220
:101CC0001092AE021092AD021092B0021092AF02CA
:101CD0001092B2021092B1026091B3026E7F6D7FDA
:101CE0006093B3026695617081E0682788E00E9486
:101CF000430661E088E00E948F06E6EFF0E0E491A1
:101D0000E093A502E2EEF0E0E491F0E0EE0FFF1FB9
:101D1000EA53FF4F859194919093A7028093A60276
:101D200060E087E00E948F068091B30281FD04C0CD
:101D300061E087E00E94430687E08093A102E5EF1F
:101D4000F0E0E491E093A202E1EEF0E0E491F0E053
:101D5000EE0FFF1FE053FF4F859194919093A402E3
:101D60008093A3028AE391E0909396028093950278
:101D70001092B4021092B5021092B6021092B702FD
:101D80001092B8021092B9021092BA021092BB02DD
:101D9000CF91FF90EF90DF90CF90BF90AF909F904A
:101DA0008F90089597FB072E16F4009407D077FDC7
:101DB00009D00E94270F07FC05D03EF4909581952D
:101DC0009F4F0895709561957F4F0895A1E21A2E57
:101DD000AA1BBB1BFD010DC0AA1FBB1FEE1FFF1FCF
:101DE000A217B307E407F50720F0A21BB30BE40B1F
:101DF000F50B661F771F881F991F1A9469F7609566
:101E00007095809590959B01AC01BD01CF0108951F
:101E1000052E97FB1EF400940E941F0F57FD07D05C
:101E20000E94E60E07FC03D04EF40C941F0F509551
:101E30004095309521953F4F4F4F5F4F08959095B6
:101E40008095709561957F4F8F4F9F4F0895AA1B86
:101E5000BB1B51E107C0AA1FBB1FA617B70710F095
:101E6000A61BB70B881F991F5A95A9F780959095C7
:101E7000BC01CD010895EE0FFF1F0590F491E02DF8
:101E800009945058BB27AA270E94590F0C94EC15AF
:101E90000E94DE1538F00E94E51520F039F49F3FCE
:101EA00019F426F40C94DB150EF4E095E7FB0C9482
:101EB000D515E92F0E94FD1558F3BA17620773076D
:101EC0008407950720F079F4A6F50C941F160EF4FC
:101ED000E0950B2EBA2FA02D0B01B90190010C013A
:101EE000CA01A0011124FF27591B99F0593F50F452
:101EF000503E68F11A16F040A22F232F342F4427AA
:101F0000585FF3CF469537952795A795F0405395A1
:101F1000C9F77EF41F16BA0B620B730B840BBAF071
:101F20009150A1F0FF0FBB1F661F771F881FC2F7DC
:101F30000EC0BA0F621F731F841F48F487957795F0
:101F40006795B795F7959E3F08F0B0CF9395880FAA
:101F500008F09927EE0F9795879508950E94C20F74
:101F60000C94EC150E94E51558F00E94DE1540F027
:101F700029F45F3F29F00C94D51551110C942016CB
:101F80000C94DB150E94FD1568F39923B1F35523DA
:101F900091F3951B550BBB27AA276217730784077C
:101FA00038F09F5F5F4F220F331F441FAA1FA9F312
:101FB00035D00E2E3AF0E0E832D091505040E69500
:101FC000001CCAF72BD0FE2F29D0660F771F881F61
:101FD000BB1F261737074807AB07B0E809F0BB0B54
:101FE000802DBF01FF2793585F4F3AF09E3F510568
:101FF00078F00C94D5150C9420165F3FE4F3983ECE
:10200000D4F3869577956795B795F7959F5FC9F750
:10201000880F911D9695879597F90895E1E0660FD1
:10202000771F881FBB1F621773078407BA0720F04A
:10203000621B730B840BBA0BEE1F88F7E0950895B3
:102040000E94051688F09F5798F0B92F9927B7512D
:10205000B0F0E1F0660F771F881F991F1AF0BA954C
:10206000C9F714C0B13091F00E941F16B1E0089575
:102070000C941F16672F782F8827B85F39F0B93F67
:10208000CCF3869577956795B395D9F73EF49095FF
:102090008095709561957F4F8F4F9F4F08950E9457
:1020A000441508F48FEF08950E944415880B990B8E
:1020B0000895CF93DF938230910510F482E090E091
:1020C000E091CD02F091CE0220E030E0C0E0D0E01F
:1020D000309711F14081518148175907C0F04817D6
:1020E000590761F482819381209719F09B838A8339
:1020F0002BC09093CE028093CD0226C021153105CE
:1021000019F04217530718F49A01BE01DF01EF01DD
:102110000280F381E02DDCCF2115310509F1281B68
:10212000390B2430310590F412968D919C911397C0
:102130006115710521F0FB019383828304C09093A4
:10214000CE028093CD02FD01329644C0FD01E20F24
:10215000F31F81939193225031092D933C933AC000
:102160002091CB023091CC02232B41F4209102012B
:10217000309103013093CC022093CB0220910001D7
:10218000309101012115310541F42DB73EB7409141
:10219000040150910501241B350BE091CB02F09115
:1021A000CC02E217F307A0F42E1B3F0B28173907C8
:1021B00078F0AC014E5F5F4F2417350748F04E0FA3
:1021C0005F1F5093CC024093CB028193919302C046
:1021D000E0E0F0E0CF01DF91CF9108950F931F93DE
:1021E000CF93DF93009709F48CC0FC0132971382E0
:1021F00012820091CD021091CE020115110581F4D9
:1022000020813181820F931F2091CB023091CC022B
:102210002817390779F5F093CC02E093CB0271C00F
:10222000D80140E050E0AE17BF0750F412962D9150
:102230003C911397AD012115310509F1D901F3CF77
:102240009D01DA013383228360817181860F971F9C
:102250008217930769F4EC0128813981260F371F13
:102260002E5F3F4F318320838A819B8193838283BA
:10227000452B29F4F093CE02E093CD0242C0139691
:10228000FC93EE931297ED01499159919E01240F11
:10229000351FE217F30771F480819181840F951F38
:1022A000029611969C938E938281938113969C93B0
:1022B0008E931297E0E0F0E0D80112968D919C91F8
:1022C0001397009719F0F8018C01F6CF8D919C912E
:1022D00098012E5F3F4F820F931F2091CB023091C8
:1022E000CC022817390769F4309729F41092CE02EE
:1022F0001092CD0202C0138212821093CC0200937E
:10230000CB02DF91CF911F910F910895A0E0B0E033
:10231000ECE8F1E10C944016EC01009721F4CB01BC
:102320000E945910B8C0FC01E60FF71F9C01225013
:102330003109E217F30708F4ACC0D9010D911C91E3
:10234000119706171707B0F00530110508F49FC064
:10235000C80104978617970708F499C0025011091D
:10236000061B170B019311936D937C93CF010E9471
:10237000EE108DC05B01A01AB10A4C01800E911EB7
:10238000A091CD02B091CE0240E050E0E12CF12CC2
:10239000109709F44AC0A815B905D1F56D907C9045
:1023A0001197630182E0C80ED11CCA14DB0480F1CE
:1023B000A3014A195B096A0182E0C80ED11C12967A
:1023C000BC9012971396AC91B5E0CB16D10440F0B7
:1023D000B282A38351834083D9016D937C930AC059
:1023E0000E5F1F4FC301800F911FF90191838083FE
:1023F000EB2DFA2FE114F10431F0D7011396FC9381
:10240000EE93129744C0F093CE02E093CD023FC00A
:102410008D919C9111974817590708F4AC017D01E3
:1024200012960D90BC91A02DB3CF8091CB029091CC
:10243000CC0288159905E1F446175707C8F4809136
:10244000000190910101009741F48DB79EB7409132
:10245000040150910501841B950BE817F907C8F496
:10246000F093CC02E093CB02F901718360830FC03B
:10247000CB010E9459107C01009759F0A801BE01C0
:102480000E945D12CE010E94EE10C70104C0CE0171
:1024900002C080E090E0CDB7DEB7EEE00C945C16B1
:1024A00081E090E0F8940C94731691110895815492
:1024B0008A5108F4805E855A0895FB01DC0102C050
:1024C00001900D9241505040D8F70895FB01DC0176
:1024D00001900D920020E1F70895FB01DC014150CD
:1024E000504048F001900D920020C9F701C01D92A4
:1024F00041505040E0F70895EF920F931F93CF9310
:10250000DF93E80147FD02C034E001C034E1E42F6D
:10251000440FFF0BF7FF03C0F195E195F109E32E9E
:10252000022F2E2FAE010E949C12CE01DF91CF917F
:102530001F910F91EF9008954F925F926F927F924B
:102540009F92AF92BF92CF92DF92EF92FF920F9342
:102550001F93CF93DF93CDB7DEB729970FB6F894CB
:10256000DEBF0FBECDBF6A01122FB02E2BE32017A6
:1025700020F0FF24F394F00E02C0BCE3FB2E0F2DDD
:1025800027E0AE014F5F5F4F0E942A14AC018981A2
:10259000982F9970913031F0E1FC06C0E0FE06C042
:1025A00090E205C09DE203C09BE201C090E0EE2DE9
:1025B000E07183FF3CC0911102C083E001C084E060
:1025C000811718F4212F281B01C020E0E1110BC056
:1025D000F601822F30E2882319F031938150FBCF2E
:1025E000C20ED11C20E0992329F0D6019C93F6015C
:1025F00031966F01C6010396E2FE0AC03EE4D601A1
:102600003C9341E411964C93119712963C9306C06B
:102610003EE6F601308341E641833283FC01322FEE
:1026200040E2332309F442C041933150FACF82FF94
:1026300044C0911102C083E001C084E0811718F406
:10264000212F281B01C020E0E1110BC0F601822FD1
:1026500030E2882319F031938150FBCFC20ED11C98
:1026600020E0992329F0D6019C93F60131966F0161
:10267000C6010396E2FE0BC039E4D6013C933EE46A
:1026800011963C93119736E412963C9307C039E6B5
:10269000F60130833EE6318336E63283FC01322F89
:1026A00040E2332319F041933150FBCFFC01E20F9C
:1026B000F11D10828EEF9FEFB7C0F1E0911101C0C4
:1026C000F0E06F2F70E01416150624F49A012F5FC6
:1026D0003F4F02C021E030E0260F371FBB2029F01A
:1026E0006B2D70E06F5F7F4F02C060E070E0260FDF
:1026F000371F612F70E0261737071CF4121B212F9C
:1027000001C020E03E2D387159F4D601322F60E22D
:10271000332319F06D933150FBCFC20ED11C20E052
:10272000FF2331F0D6019C93B6016F5F7F4F6B01A1
:10273000E1110BC0F601922F30E3992319F0319388
:102740009150FBCFC20ED11C20E09F2D940F3A81F7
:10275000782F7071A72E84FF03C0313309F4915094
:10276000191624F4993018F098E001C091E0E42F94
:10277000852F57FF02C0E0E080E06E2F782FE0E069
:10278000F0E0AEE29A2E3A01691A71082A01461A5F
:10279000570A0B2D10E01195019511096F3F8FEF2E
:1027A000780729F4D6019C92C60101966C01461760
:1027B000570784F0661677066CF47F01E40CF51C6D
:1027C000A1E0B0E0AC0FBD1FEA0EFB1ED7011196D1
:1027D000BC9002C090E3B92E615071093196C601D8
:1027E00001967C016017710724F0D601BC926C0140
:1027F000D5CF6417750741F4363320F4353321F40F
:10280000A11002C081E3B82EF601B082F701822F39
:1028100090E2882319F091938150FBCFF701E20FEA
:10282000F11D108280E090E029960FB6F894DEBF8B
:102830000FBECDBFDF91CF911F910F91FF90EF9011
:10284000DF90CF90BF90AF909F907F906F905F9000
:102850004F900895283008F027E03327DA01990FC8
:10286000311D87FD916000966105710539F4326074
:102870002E5F3D9330E32A95E1F708959F3F30F0B6
:1028800080387105610509F03C5F3C5F3D939130F4
:1028900008F08068911DDF93CF931F930F93FF92F1
:1028A000EF92192F987F9695E92F96959695E90FB7
:1028B000FF27E45AFE4F99273327EE24FF24A70170
:1028C000E70105900894079428F4360FE71EF81ED8
:1028D000491F511D660F771F881F991F0694A1F786
:1028E0000590079428F4E70EF81E491F561FC11DD6
:1028F000770F881F991F661F0694A1F7059007940C
:1029000028F4F80E491F561FC71FD11D880F991FA5
:10291000661F771F0694A1F70590079420F4490FCE
:10292000561FC71FD81F990F661F771F881F069451
:10293000A9F784911095177041F0D695C7955795D2
:102940004795F794E7941A95C1F7E2E0F1E06894AF
:102950001590159135916591959105907FE273954C
:10296000E118F10A430B560BC90BD009C0F7E10C73
:10297000F11E431F561FC91FD01D7EF4703311F482
:102980008A95E6CFE894015030F0080F0AF400274A
:10299000021708F4202F2395022F7A3328F079E3C9
:1029A0007D932A95E9F710C07D932A9589F60694C0
:1029B00097956795379517951794E118F10A430B8A
:1029C000560BC90BD00998F023957E9173957A33F5
:1029D00008F070E37C932013B8F77E9170617D93CB
:1029E00030F0839571E37D9370E32A95E1F711242C
:1029F000EF90FF900F911F91CF91DF91992787FD65
:102A0000909508950E94441508F481E00895E89493
:102A100009C097FB3EF490958095709561957F4F26
:102A20008F4F9F4F9923A9F0F92F96E9BB279395D4
:102A3000F695879577956795B795F111F8CFFAF4E4
:102A4000BB0F11F460FF1BC06F5F7F4F8F4F9F4F15
:102A500016C0882311F096E911C0772321F09EE873
:102A6000872F762F05C0662371F096E8862F70E0D9
:102A700060E02AF09A95660F771F881FDAF7880FB3
:102A80009695879597F90895990F0008550FAA0B09
:102A9000E0E8FEEF16161706E807F907C0F0121671
:102AA0001306E407F50798F0621B730B840B950B74
:102AB00039F40A2661F0232B242B252B21F40895C9
:102AC0000A2609F4A140A6958FEF811D811D089566
:102AD0000E947B150C94EC150E94DE1538F00E94C4
:102AE000E51520F0952311F00C94D5150C94DB1509
:102AF00011240C9420160E94FD1570F3959FC1F3CC
:102B0000950F50E0551F629FF001729FBB27F00D9B
:102B1000B11D639FAA27F00DB11DAA1F649F6627F0
:102B2000B00DA11D661F829F2227B00DA11D621F3F
:102B3000739FB00DA11D621F839FA00D611D221FF9
:102B4000749F3327A00D611D231F849F600D211DDD
:102B5000822F762F6A2F11249F5750409AF0F1F060
:102B600088234AF0EE0FFF1FBB1F661F771F881FC9
:102B700091505040A9F79E3F510580F00C94D51517
:102B80000C9420165F3FE4F3983ED4F38695779536
:102B90006795B795F795E7959F5FC1F7FE2B880F6F
:102BA000911D9695879597F9089597F99F6780E805
:102BB00070E060E008959FEF80EC089500240A948F
:102BC0001616170618060906089500240A94121608
:102BD0001306140605060895092E0394000C11F43B
:102BE000882352F0BB0F40F4BF2B11F460FF04C0E8
:102BF0006F5F7F4F8F4F9F4F089557FD9058440F41
:102C0000551F59F05F3F71F04795880F97FB991F4B
:102C100061F09F3F79F08795089512161306140608
:102C2000551FF2CF4695F1DF08C016161706180695
:102C3000991FF1CF86957105610508940895E89470
:102C4000BB2766277727CB0197F90895F999FECF1F
:102C500092BD81BDF89A992780B50895262FF999DC
:102C6000FECF1FBA92BD81BD20BD0FB6F894FA9A6F
:102C7000F99A0FBE019608952F923F924F925F925C
:102C80006F927F928F929F92AF92BF92CF92DF927C
:102C9000EF92FF920F931F93CF93DF93CDB7DEB7E1
:102CA000CA1BDB0B0FB6F894DEBF0FBECDBF099475
:102CB0002A88398848885F846E847D848C849B84CC
:102CC000AA84B984C884DF80EE80FD800C811B81DA
:102CD000AA81B981CE0FD11D0FB6F894DEBF0FBE09
:102CE000CDBFED01089511E0CFEFD0E004C0FE01AB
:102CF0000E943B0F2196C030D107C9F7F894FFCF4F
:102D00000000CF0280007162757365643D007662D9
:102D10003D0069623D0000000000AF012B01780119
:102D200056016A01F601000000009A022B01EE0232
:102D3000060381029902000000009A022B01EE02B4
:102D40000603810299026400565265663A2000200B
:102D500049426174746572793A20000D0A007271FB
:102D60003A4339463634413538006570726F6D002C
:102D70006E616E00696E66006F7666002E003A0026
:00000001FF
